{
  "contractName": "ProductReview",
  "abi": [
    {
      "inputs": [
        {
          "internalType": "uint256",
          "name": "",
          "type": "uint256"
        }
      ],
      "name": "reviews",
      "outputs": [
        {
          "internalType": "address",
          "name": "reviewer",
          "type": "address"
        },
        {
          "internalType": "string",
          "name": "content",
          "type": "string"
        }
      ],
      "stateMutability": "view",
      "type": "function"
    },
    {
      "inputs": [
        {
          "internalType": "string",
          "name": "_content",
          "type": "string"
        }
      ],
      "name": "addReview",
      "outputs": [],
      "stateMutability": "nonpayable",
      "type": "function"
    },
    {
      "inputs": [
        {
          "internalType": "uint256",
          "name": "_index",
          "type": "uint256"
        }
      ],
      "name": "getReview",
      "outputs": [
        {
          "internalType": "address",
          "name": "",
          "type": "address"
        },
        {
          "internalType": "string",
          "name": "",
          "type": "string"
        }
      ],
      "stateMutability": "view",
      "type": "function"
    },
    {
      "inputs": [],
      "name": "getReviewsCount",
      "outputs": [
        {
          "internalType": "uint256",
          "name": "",
          "type": "uint256"
        }
      ],
      "stateMutability": "view",
      "type": "function"
    }
  ],
  "bytecode": "0x608060405234801561000f575f80fd5b50610a348061001d5f395ff3fe608060405234801561000f575f80fd5b506004361061004a575f3560e01c80631435ba3c1461004e57806348db8fa91461006c578063990581b614610088578063e83ddcea146100b9575b5f80fd5b6100566100ea565b60405161006391906103b7565b60405180910390f35b6100866004803603810190610081919061051d565b6100f5565b005b6100a2600480360381019061009d919061058e565b6101a6565b6040516100b0929190610672565b60405180910390f35b6100d360048036038101906100ce919061058e565b6102cc565b6040516100e1929190610672565b60405180910390f35b5f8080549050905090565b5f60405180604001604052803373ffffffffffffffffffffffffffffffffffffffff16815260200183815250908060018154018082558091505060019003905f5260205f2090600202015f909190919091505f820151815f015f6101000a81548173ffffffffffffffffffffffffffffffffffffffff021916908373ffffffffffffffffffffffffffffffffffffffff16021790555060208201518160010190816101a0919061089a565b50505050565b5f60605f8054905083106101ef576040517f08c379a00000000000000000000000000000000000000000000000000000000081526004016101e6906109b3565b60405180910390fd5b5f808481548110610203576102026109d1565b5b905f5260205f2090600202019050805f015f9054906101000a900473ffffffffffffffffffffffffffffffffffffffff1681600101808054610244906106cd565b80601f0160208091040260200160405190810160405280929190818152602001828054610270906106cd565b80156102bb5780601f10610292576101008083540402835291602001916102bb565b820191905f5260205f20905b81548152906001019060200180831161029e57829003601f168201915b505050505090509250925050915091565b5f81815481106102da575f80fd5b905f5260205f2090600202015f91509050805f015f9054906101000a900473ffffffffffffffffffffffffffffffffffffffff169080600101805461031e906106cd565b80601f016020809104026020016040519081016040528092919081815260200182805461034a906106cd565b80156103955780601f1061036c57610100808354040283529160200191610395565b820191905f5260205f20905b81548152906001019060200180831161037857829003601f168201915b5050505050905082565b5f819050919050565b6103b18161039f565b82525050565b5f6020820190506103ca5f8301846103a8565b92915050565b5f604051905090565b5f80fd5b5f80fd5b5f80fd5b5f80fd5b5f601f19601f8301169050919050565b7f4e487b71000000000000000000000000000000000000000000000000000000005f52604160045260245ffd5b61042f826103e9565b810181811067ffffffffffffffff8211171561044e5761044d6103f9565b5b80604052505050565b5f6104606103d0565b905061046c8282610426565b919050565b5f67ffffffffffffffff82111561048b5761048a6103f9565b5b610494826103e9565b9050602081019050919050565b828183375f83830152505050565b5f6104c16104bc84610471565b610457565b9050828152602081018484840111156104dd576104dc6103e5565b5b6104e88482856104a1565b509392505050565b5f82601f830112610504576105036103e1565b5b81356105148482602086016104af565b91505092915050565b5f60208284031215610532576105316103d9565b5b5f82013567ffffffffffffffff81111561054f5761054e6103dd565b5b61055b848285016104f0565b91505092915050565b61056d8161039f565b8114610577575f80fd5b50565b5f8135905061058881610564565b92915050565b5f602082840312156105a3576105a26103d9565b5b5f6105b08482850161057a565b91505092915050565b5f73ffffffffffffffffffffffffffffffffffffffff82169050919050565b5f6105e2826105b9565b9050919050565b6105f2816105d8565b82525050565b5f81519050919050565b5f82825260208201905092915050565b5f5b8381101561062f578082015181840152602081019050610614565b5f8484015250505050565b5f610644826105f8565b61064e8185610602565b935061065e818560208601610612565b610667816103e9565b840191505092915050565b5f6040820190506106855f8301856105e9565b8181036020830152610697818461063a565b90509392505050565b7f4e487b71000000000000000000000000000000000000000000000000000000005f52602260045260245ffd5b5f60028204905060018216806106e457607f821691505b6020821081036106f7576106f66106a0565b5b50919050565b5f819050815f5260205f209050919050565b5f6020601f8301049050919050565b5f82821b905092915050565b5f600883026107597fffffffffffffffffffffffffffffffffffffffffffffffffffffffffffffffff8261071e565b610763868361071e565b95508019841693508086168417925050509392505050565b5f819050919050565b5f61079e6107996107948461039f565b61077b565b61039f565b9050919050565b5f819050919050565b6107b783610784565b6107cb6107c3826107a5565b84845461072a565b825550505050565b5f90565b6107df6107d3565b6107ea8184846107ae565b505050565b5b8181101561080d576108025f826107d7565b6001810190506107f0565b5050565b601f82111561085257610823816106fd565b61082c8461070f565b8101602085101561083b578190505b61084f6108478561070f565b8301826107ef565b50505b505050565b5f82821c905092915050565b5f6108725f1984600802610857565b1980831691505092915050565b5f61088a8383610863565b9150826002028217905092915050565b6108a3826105f8565b67ffffffffffffffff8111156108bc576108bb6103f9565b5b6108c682546106cd565b6108d1828285610811565b5f60209050601f831160018114610902575f84156108f0578287015190505b6108fa858261087f565b865550610961565b601f198416610910866106fd565b5f5b8281101561093757848901518255600182019150602085019450602081019050610912565b868310156109545784890151610950601f891682610863565b8355505b6001600288020188555050505b505050505050565b7f52657669657720696e646578206f7574206f6620626f756e64732e00000000005f82015250565b5f61099d601b83610602565b91506109a882610969565b602082019050919050565b5f6020820190508181035f8301526109ca81610991565b9050919050565b7f4e487b71000000000000000000000000000000000000000000000000000000005f52603260045260245ffdfea2646970667358221220941a443fdb93223e003de23762bc44db027b66b3cf1119031da419e21d1a657964736f6c63430008150033",
  "immutableReferences": {},
  "source": "// SPDX-License-Identifier: MIT\r\npragma solidity ^0.8.0;\r\n\r\ncontract ProductReview {\r\n    struct Review {\r\n        address reviewer;\r\n        string content;\r\n    }\r\n\r\n    Review[] public reviews;\r\n\r\n    function addReview(string memory _content) public {\r\n        reviews.push(Review(msg.sender, _content));\r\n    }\r\n\r\n    function getReview(uint _index) public view returns (address, string memory) {\r\n        require(_index < reviews.length, \"Review index out of bounds.\");\r\n        Review storage review = reviews[_index];\r\n        return (review.reviewer, review.content);\r\n    }\r\n\r\n    function getReviewsCount() public view returns (uint) {\r\n        return reviews.length;\r\n    }\r\n}\r\n\r\n",
  "sourcePath": "/Users/daniel_oh/Documents/colostate/cs358_blockchain/ProductReviewsdApp/contracts/productReviews.sol",
  "compiler": {
    "name": "solc",
    "version": "0.8.21+commit.d9974bed.Emscripten.clang"
  },
  "schemaVersion": "3.4.16",
  "updatedAt": "2024-06-28T16:52:12.560Z",
  "devdoc": {
    "kind": "dev",
    "methods": {},
    "version": 1
  },
  "userdoc": {
    "kind": "user",
    "methods": {},
    "version": 1
  }
}